:020000040800F2
:100000005816002001010008CB180008C718000886
:10001000C91800084D080008251C00080000000051
:1000200000000000000000000000000013010008B4
:100030004F0800080000000017010008EF18000832
:100040001B0100081B0100081B0100081B01000820
:100050001B010008ED1800081B0100081B01000827
:100060001B0100081B0100081B0100081B01000800
:100070001B0100081B0100081B0100081B010008F0
:100080001B0100081B0100081B0100081B010008E0
:100090001B0100081B0100081B0100081B010008D0
:1000A0001B0100081B0100081B0100081B010008C0
:1000B0001B0100081B0100081B0100081B010008B0
:1000C0001B0100081B0100081B0100081B010008A0
:1000D0001B010008191C00081B0100081B01000877
:1000E0001B0100081B0100081B010008DFF80CD0F1
:1000F00000F0DCF9004800471521000858160020E0
:100100000648804706480047FEE7FEE7FEE7FEE7B1
:10011000FEE7FEE7FEE7FEE7FEE7FEE7511900080F
:10012000ED000008202A04DB203A21FA02F0002129
:10013000704721FA02F3D040C2F1200291400843F7
:100140001946704710B5002200E0521C835C8C5C9D
:10015000A34201D1002BF8D1D8B2E1B2401A10BDB0
:100160000FB400B58DB010A909900B9000914FF01D
:10017000FF300A9000200C90054806900548079033
:100180006A4609A80F9900F063F90DB05DF814FBF9
:100190006D0400088B0400082DE9FF5F1D464FF039
:1001A000FF3BD5E9014691465F464FF00008A9693B
:1001B0007F1C01988847296A824688470028F6D123
:1001C000BAF1FF3F0CD024F4C064002E19DD6006A4
:1001D00014D5BAF12B0F09D0BAF12D0F0ED103E0CF
:1001E000584604B0BDE8F09F44F48064A9697F1CC0
:1001F00001988847761E8246002E02DDBAF1300F44
:1002000003D0B9F1000F26D032E0A969761E44F47C
:1002100000747F1C019888478246002E05DDBAF1E4
:10022000780F06D0BAF1580F03D0B9F1000F10D0F3
:100230001EE0B9F1000F02D0B9F1100F18D1A96971
:10024000761E24F400747F1C019888478246102093
:1002500002E0082000E00A20814609E008FB0908C6
:10026000A969761E44F400747F1C01988847824671
:10027000002E05DD4946504600F0D5F80028EDDA9D
:10028000E96901988847A00502D46FF00100A8E74A
:10029000E00725D1600613D5600502D5C8F100003E
:1002A00000E0404629680A1D2A600968220501D538
:1002B000087015E0220701D5088011E008600FE002
:1002C0002868011D29600068210502D580F800809A
:1002D00006E0210702D5A0F8008001E0C0F8008008
:1002E00038467EE72DE9FF5FD2E901A74FF000080D
:1002F000916999461446DDF838B04646019888471A
:10030000054659EA0B0005D009E0A169761C019861
:1003100088470546216A284688470028F5D1681C89
:1003200003D05FEACA7005D015E04FF0FF3004B08B
:10033000BDE8F09F2068011D2160D0F800800AE030
:100340005FEACA7001D108F8015BA169761C7F1EC3
:10035000019888470546002F1ADD681C18D0B9F1AE
:10036000000F0DD0E81705EBD060421120F01F0000
:1003700059F822102A1A012090400142E0D107E0EA
:10038000BBF1000FDCD1216A284688470028D7D06E
:10039000E16901988847BBF1000F07D1002E05DD08
:1003A0005FEACA7002D1002188F80010A068B84244
:1003B00003DDBBF1000F03D017B16FF00100B6E70A
:1003C0003046B4E72DE9F05F0546002092469B4693
:1003D00088460646814640241BE02846414647465B
:1003E0002246FFF79FFE53465A46C01A914110D34A
:1003F00011461846224600F06BF82D1A67EB0108EB
:100400004F4622460120002100F062F817EB000958
:100410004E41201EA4F10104DFDC484631462A4645
:100420004346BDE8F09F3A2800D2303820F0200241
:10043000412A01D3A2F13700884201D34FF0FF30A7
:100440007047000002681144137801601846704735
:10045000D1600449516104491162002111611146C2
:1004600000F04AB845040008EF040008426842B1B1
:10047000016811F8013B23B1521EC0E90012184671
:1004800070470121C160881E704742685AB1C36835
:10049000016843B983688B4205D0491E521CC0E9EC
:1004A0000012002070474FF0FF307047064C074D98
:1004B00006E0E06840F0010394E807009847103434
:1004C000AC42F6D3FFF716FE7C2300089C230008FD
:1004D000202A04DB203A00FA02F100207047914004
:1004E000C2F1200320FA03F3194390407047C0B2D1
:1004F0004FF4F05100F096B92DE9F34F8BB04FF067
:10050000000801F10C000C464FF0010B46460DF1BE
:10051000080A0190626901210198904705002DD0D9
:10052000252D2CD0216A8847C0B16269012101982C
:100530009047216A88470028F7D1411E62690198D7
:10054000904700E0761CA1690B988847216A88478C
:100550000028F7D1E1690B988847DBE7A1690B9880
:1005600088470746A84201D1761CD3E7E1690B987A
:1005700088477F1C02D1B8F1000F6FD046E10027F9
:1005800062693D463946019890472A2804D162693C
:100590000121019890470125DFF8849262690121C9
:1005A00001989047A0F130010A290AD24F45E5DCB5
:1005B00007EB870100EB4107303FDFD445F0100522
:1005C000ECE7E90601D46FF000476C280AD04C280C
:1005D00014D0682815D06A280DD074281CD07A2829
:1005E0001AD01DE062690121019890476C2802D061
:1005F00045F0040514E045F002050DE045F0200546
:100600000AE06269012101989047682802D045F00C
:10061000080505E045F400656269012101989047ED
:10062000C4E9015765283DD019DC58287AD00CDC84
:10063000452837D004DC252826D0412831D131E0A7
:1006400046282FD047282CD12CE05B2877D0612872
:1006500028D063287CD0642823D15AE0D0E06F28CA
:1006600048D008DC66281DD067281BD0692821D017
:100670006E2816D127E0702845D0732868D07528D9
:1006800047D078280DD14DE0A1690B9888470546E1
:1006900025283FF469AFE1690B9888476D1C3FF44A
:1006A0006AAFB3E023466A466FF001000B99AFF3DF
:1006B00000809EE045F040006060A80723464FF0B0
:1006C000000236D43EE0E8077FF447AF2068011D02
:1006D00021600068290501D506701BE7290701D5AF
:1006E000068017E7A90703D5F117C0E9006111E7F4
:1006F00006600FE745F040006060A80723464FF012
:10070000080216D41EE040F60E0125EA01006060E2
:1007100016E045F040006060A80723464FF00A024B
:1007200007D40FE045F040006060A80708D52346D5
:1007300010226FF001000B99AFF3008059E007E041
:10074000234610226FF001000B99FFF725FD50E0C2
:100750004FF000094F464B46632802D05B2806D075
:1007600040E0E80601D40120A06001273AE0626978
:100770000121019890475E2805D14FF00109626977
:10078000494601989047216939B900210A465346E4
:1007900043F82120491C0829FADBB0B3216969B963
:1007A000C11700EBD16253110AEB830122F01F0243
:1007B000821A01200B68904003430B60626901219B
:1007C000019890475D28E8D1B9F1000F09D00020C9
:1007D000514651F82020D24341F82020401C0828DF
:1007E000F7DB02AB224600976FF001000B99FFF791
:1007F00079FD00280CDA401C08D1BBF1000F05D0B0
:100800004FF0FF300DB0BDE8F08FFFE74046F9E74D
:10081000E90701D108F1010806444FF0000B79E621
:10082000CCCCCC0C7F2801D9002208E0064A02EB90
:100830005002C007127800D1120902F00F02012005
:1008400090400840704700003C230008FEE7FEE7A8
:1008500031B500F0E7F8044600F0E4F80099001B19
:100860008842F9D338BD00002DE9F84FDFF890A198
:1008700000220AF1040B144601274FF00F090BF177
:10088000040E00BF0B6807FA04F52B40AB4274D18D
:10089000DFF870C14E68A6EB0C0866452BD00DDC66
:1008A000032E34D005DC36B3012E19D0022E2FD101
:1008B0001BE0112E16D0122E2AD119E0B8F5881F90
:1008C00019D006DCB8F5803F15D0B8F5801F1FD1D0
:1008D00011E0B8F5001F0ED0B8F5041F18D10AE0DA
:1008E000CA6815E0CA68121D12E0CA6808320FE033
:1008F000CA680C320CE08A682AB1012A4FF008025B
:1009000003D0456104E0042202E0056100E000221A
:10091000FF2B01D8064601E000F104064FEA8405EA
:1009200001D9A5F12005D6F800C009FA05F82CEA8E
:10093000080C02FA05F54CEA050CC6F800C04D6833
:10094000ED0057D5304DAE6946F00106AE61AD6998
:1009500024F0030605F0010500952C4D06EB050C6F
:10096000DCF80850A6074FEA167809FA08F6B543EE
:10097000274EB04202D1002610E03BE0254EB042A7
:1009800001D101260AE0244EB04201D1022605E041
:10099000224EB04201D1032600E0042606FA08F6F2
:1009A0002E43CCF808604D68DAF80060ED03554638
:1009B00001D51E4300E09E432E604D68DBF80060C9
:1009C000AD035D4601D51E4300E09E432E604D6899
:1009D000DEF80060ED02754601D51E4300E09E433F
:1009E0002E604D68AD020E4D2E6801D51E4300E00D
:1009F0009E432E60641C102CFFF444AFBDE8F88FBA
:100A000000040140000011100010024000000140ED
:100A100000080140000C014000100140001401409A
:100A20000C040140014800687047000004000020E9
:100A300002480168491C0160704700000400002062
:100A4000074810B5016841F010010160032000F073
:100A50007DF8002000F006F800F016F8002010BD28
:100A60000020024010B5044600F0C6F94FF47A7138
:100A7000B0FBF1F000F070FD00222146501E00F0A6
:100A800045F8002010BD0000194808B5816941F003
:100A900001018161806900F001000090032000F0F5
:100AA00055F8002211466FF00B0000F02FF80022DD
:100AB00011466FF00A0000F029F8002211466FF08D
:100AC000090000F023F800221146101F00F01EF864
:100AD00000221146501E00F019F800221146052090
:100AE00000F014F8BDE80840052000F003B800004D
:100AF0000010024000F01F020121914040098000D7
:100B000000F1E020C0F8001170470000F0B40E4B77
:100B10001B680C46C3F30223C3F10705042D00D95B
:100B20000425191D072901D2002300E0DB1E012640
:100B300006FA05F1491E214099409E40761E164056
:100B40003143F0BC00F0C2BE0CED00E0064900F0FD
:100B5000070208684FF6FF03184040EA0220034AE4
:100B600010430860704700000CED00E00000FA053B
:100B70002DE9F047DFF8789205460E46D9F80000D7
:100B8000022300F00707012041044206994C41F27C
:100B90008838B74271D2D9F800C02CF0070C4CEA63
:100BA000060CC9F800C0D9F8007007F00707B74273
:100BB0006FD12E78B60705D56668AF6826F0F006C7
:100BC0003E4366602E78F60756D06E68012E0BD035
:100BD000022E1ED093FAA3F1B1FA81F141F0200167
:100BE000490924D0216823E091FAA1F2B2FA82F2F5
:100BF00042F02002520901D0226800E0626A91FAB4
:100C0000A1F1B1FA81F101F01F018840024240D008
:100C100017E092FAA2F1B1FA81F141F020014909FD
:100C200001D0216800E0616A92FAA2F202E0616AF2
:100C300093FAA3F2B2FA82F202F01F02904001424C
:100C400027D0606820F0030030436060FFF7EAFEC1
:100C500006466868012809D00228474613D01EE0DE
:100C6000FFF7E0FE801BB84201D992E0474660687A
:100C7000C0F381000128F3D1A1E015E0FFF7D2FE17
:100C8000801BB84273D86068C0F381000228F5D198
:100C900095E092E0FFF7C6FE801BB84279D8606805
:100CA00010F00C0FF6D18AE02F78BF0707D56768E0
:100CB000D5F808C027F0F00747EA0C0767602F78DF
:100CC000FF076DD06F68012F0BD0022F1ED093FA53
:100CD000A3F1B1FA81F141F02001490924D0216842
:100CE00023E091FAA1F2B2FA82F242F02002520914
:100CF00001D0226800E0626A91FAA1F1B1FA81F1B3
:100D000001F01F018840024257D017E092FAA2F189
:100D1000B1FA81F141F02001490901D0216800E0D8
:100D2000616A92FAA2F202E0616A93FAA3F2B2FA5D
:100D300082F202F01F02904001423ED0606820F033
:100D4000030038436060FFF76DFE074668680128BE
:100D500007D0022811D01FE0FFF764FEC11B4145F8
:100D600017D86068C0F381000128F5D118E010E0C1
:100D7000FFF758FEC11B41450BD86068C0F38100E6
:100D80000228F5D10CE000BFFFF74CFEC11B414526
:100D900002D90320BDE8F087606810F00C0FF3D192
:100DA000D9F8001021F007013143C9F80010D9F833
:100DB000000000F00700B04201D00120EAE72878E7
:100DC000400705D56068E96820F4E060084360608A
:100DD0002878000706D56068296920F4605040EA49
:100DE000C10060600020FFF73DFE0020D2E7000058
:100DF000002002400010024000B500F043F808490E
:100E00004968F02292FAA2F201F0F001B2FA82F2FD
:100E1000D140044A515CC8400349086000BD00004D
:100E2000001002402C2300080000002000B5FFF74E
:100E3000E3FF074949684FF4E06292FAA2F201F435
:100E4000E061B2FA82F2D140024A515CC84000BD72
:100E5000001002402C23000800B5FFF7CDFF074922
:100E600049684FF4605292FAA2F201F46051B2FA6A
:100E700082F2D140024A515CC84000BD00100240DD
:100E80002C23000810B519A385B00FCB8DE80F00F7
:100E90001AA01B4B006804905A681A4802F00C0113
:100EA00004291DD008291BD14FF4701494FAA4F41E
:100EB00002F47011B4FA84F4E140D2031DF8011079
:100EC00010D55A684FF4003393FAA3F302F40032BA
:100ED000B3FA83F3DA4004AB9A5CB0FBF2F0484318
:100EE00005B010BD08484843FAE7000002030405B6
:100EF000060708090A0B0C0D0E0F10100102000066
:100F00000010024000127A0000093D002DE9F84F60
:100F100005460078FA4EC0074FF0010425D07068EE
:100F20006704C0F38100012807D07068C0F3810016
:100F300002281BD17068C00318D597FAA7F0B0FA41
:100F400080F040F02000400901D0306800E0706A75
:100F500097FAA7F1B1FA81F101F01F0104FA01F14A
:100F6000084202D06868002876D081E0306820F41A
:100F700080303060306820F480203060FFF752FD10
:100F8000804605E0FFF74EFDA0EB080064287CD802
:100F900097FAA7F0B0FA80F040F02000400901D0A5
:100FA000306800E0706A97FAA7F1B1FA81F101F0B8
:100FB0001F0104FA01F10842E4D16868B0F5803FEE
:100FC0000BD010B1B0F5A02F11D0306820F48030D4
:100FD0003060306820F4802002E0306840F48030D7
:100FE0003060686820B3FFF71DFD80460AE0306876
:100FF00040F480203060F0E7FFF714FDA0EB08001C
:101000006428C4D897FAA7F0B0FA80F040F0200026
:10101000400901D0306800E0706A97FAA7F1B1FA90
:1010200081F101F01F0104FA01F10842E4D01FE050
:10103000FFF7F8FC804605E0FFF7F4FCA0EB0800A2
:101040006428A4D897FAA7F0B0FA80F040F0200006
:10105000400902D0306801E0B7E0706A97FAA7F162
:10106000B1FA81F101F01F0104FA01F10842E3D164
:101070002878DFF8908280074FF000094FF00207D0
:101080005AD5706810F00C0F00E07AE14FF0F80BC1
:1010900007D07068C0F3810002281BD17068C003BC
:1010A00018D497FAA7F0B0FA80F040F02000400979
:1010B00001D0306800E0706A97FAA7F1B1FA81F1C7
:1010C00001F01F0104FA01F108422AD02869012821
:1010D0007BD126E0286980B394FAA4F0B0FA80F0BE
:1010E00048F82040FFF79EFC824605E0FFF79AFC97
:1010F000A0EB0A00022884D897FAA7F0B0FA80F093
:1011000040F02000400901D0306800E0706A97FA92
:10111000A7F1B1FA81F101F01F0104FA01F10842CF
:10112000E4D030689BFAABF26969B2FA82F220F03F
:10113000F80091400843306025E0FFE794FAA4F1FD
:10114000B1FA81F148F82190FFF76CFC824605E086
:10115000FFF768FCA0EB0A000228CCD897FAA7F0AA
:10116000B0FA80F040F02000400901D0306800E083
:10117000706A97FAA7F1B1FA81F101F01F0104FA40
:1011800001F10842E4D1287800076ED5A869B8B308
:1011900094FAA4F0B0FA80F008EB8000C0F8804424
:1011A000FFF740FC824605E0FFF73CFCA0EB0A009D
:1011B0000228A0D897FAA7F0B0FA80F040F06000BB
:1011C000B4EB501F02D130680CE096E197FAA7F01B
:1011D000B0FA80F040F06000B7EB501F01D1306AE8
:1011E00000E0706A97FAA7F1B1FA81F101F01F01EE
:1011F00004FA01F21042D7D00120FFF729FB34E0B6
:10120000FFE794FAA4F1B1FA81F108EB8101C1F88A
:101210008094FFF707FC824606E000BFFFF702FC60
:10122000A0EB0A00022898D897FAA7F0B0FA80F04D
:1012300040F06000B4EB501F01D130680BE097FA2A
:10124000A7F0B0FA80F040F06000B7EB501F01D17A
:10125000306A00E0706A97FAA7F1B1FA81F101F003
:101260001F0104FA01F21042D8D12878400770D546
:10127000F06940F08050F061F069DFF88CB000F068
:1012800080500090DBF8001041F48071CBF8001022
:10129000FFF7C8FB824605E0FFF7C4FBA0EB0A009E
:1012A00064286ED8DBF80000C005F5D5306A20F060
:1012B00001003062306A20F004003062FFF7B2FBB8
:1012C000834641F2883A05E0FFF7ACFBA0EB0B0147
:1012D000514556D897FAA7F0B0FA80F040F0400098
:1012E000B4EB501F01D1306811E097FAA7F0B0FAC3
:1012F00080F040F04000B7EB501F07D1306A06E0A5
:10130000001002400000424200700040706A97FAEC
:10131000A7F1B1FA81F101F01F0104FA01F10842CD
:10132000D2D1E86801280AD008B1052812D0306A65
:1013300020F001003062306A20F0040002E0306AE0
:1013400040F001003062E86898B3FFF76BFB83461A
:101350000CE05AE0306A40F004003062EFE700BF72
:10136000FFF760FBA0EB0B0151450AD897FAA7F0F5
:10137000B0FA80F040F04000B4EB501F02D130686A
:101380000CE09DE097FAA7F0B0FA80F040F0400042
:10139000B7EB501F01D1306A00E0706A97FAA7F1ED
:1013A000B1FA81F101F01F0204FA02F10842D7D02C
:1013B0002BE0FFE7FFF736FB834605E0FFF732FB44
:1013C000A0EB0B0151457BD897FAA7F0B0FA80F05B
:1013D00040F04000B4EB501F01D130680BE097FAA9
:1013E000A7F0B0FA80F040F04000B7EB501F01D1F9
:1013F000306A00E0706A97FAA7F1B1FA81F101F062
:101400001F0204FA02F10842D8D1E86980B371687A
:10141000C1F38101022970D04FF080714F00022882
:10142000484609D091FAA1F1B1FA81F148F82100BA
:10143000FFF7F8FA054669E0894691FAA1F1B1FA99
:1014400081F1C24648F82100FFF7ECFA804605E03A
:10145000FFF7E8FAA0EB0800022854D897FAA7F0A3
:10146000B0FA80F040F02000400902D0306801E07E
:1014700061E0706A97FAA7F1B1FA81F101F01F01FA
:1014800004FA01F10842E3D1286AB0F5803F05D1A2
:101490007068A96820F4003008437060D5E908013D
:1014A0000843716821F474110843706099FAA9F037
:1014B000B0FA80F04AF82040FFF7B4FA054606E09B
:1014C00021E000BFFFF7AEFA401B02281BD897FAB5
:1014D000A7F0B0FA80F040F02000400901D0306859
:1014E00000E0706A97FAA7F1B1FA81F101F01F01EB
:1014F00004FA01F10842E5D01DE01EE0FFF792FA80
:10150000401B022802D90320BDE8F88F97FAA7F004
:10151000B0FA80F040F02000400901D0306800E0CF
:10152000706A97FAA7F1B1FA81F101F01F0104FA8C
:1015300001F10842E2D10020E6E70120E4E74FF0A4
:10154000E0210428086903D020F0040008617047F6
:1015500040F00400FAE7704710B5401EB0F1807FFC
:1015600001D3012010BD4FF0E02460610F2160170E
:1015700000F0ACF90020A06107202061002010BD20
:1015800010B5FFF7E8FF10BD7047000038B50446FE
:1015900000680168C26811F0010F02F4807204D083
:1015A0001AB1E16B41F00101E1630168C1F340024E
:1015B000416901F0010122B119B1E26B42F004026C
:1015C000E2630268C2F3800222B119B1E26B42F019
:1015D0000202E2630268C2F3C00222B119B1E16BF8
:1015E00041F00801E1630168C068C1F3401100F0F7
:1015F000200019B110B1204600F0CEF92068016832
:10160000C068C1F3C01100F0800019B110B12046CC
:1016100000F086FA21680868CA68C0F3801002F0FA
:101620004002012570B16AB1CA68204622F040022A
:10163000CA6094F83910322911D080F8395000BFAF
:1016400000F040F9E06B002808D02068016840688D
:10165000009084F839502046FFF796FF38BD2221CC
:1016600080F83910ECE770B5040004D094F8390024
:10167000002510B106E0012070BD84F838502046E6
:1016800000F020F8022084F839002068C16821F4B5
:101690000051C160204600F0D3F92068016921F4AF
:1016A000904101612068416921F02A01416120686F
:1016B000C16841F40051C160E563012084F839003C
:1016C000002070BD10B50068154986B0884225D14C
:1016D0001448816941F4804181618069124C00F4B1
:1016E000804004904FF4007000900220019003208D
:1016F000039069462046FFF7B7F800212015CDE991
:101700000001029169462046FFF7AEF8002211461B
:101710002520FFF7FBF92520FFF7ECF906B010BDF7
:1017200000380140001002400008014090F83930B4
:10173000012B01D0122B2CD139B332B390F83830B1
:10174000012B26D0012380F8383081628285C28542
:101750000021C16390F83920122A18D05FF02202CC
:1017600080F8392080F838100168CA6842F4807225
:10177000CA6001684A6942F001024A610068C168B2
:1017800041F02001C16000207047012070473222E3
:10179000E6E70220704700002DE9F041144C0646B0
:1017A000144920680578284600F098FD0D2D03D1D6
:1017B0001049284600F092FD0D494FF4007508319C
:1017C0002A460F460A4800F081FDD4E9000188420C
:1017D00004D12A463946201D00F078FD012230460A
:1017E0002168FFF7A3FF0028F8D1BDE8F0810000D1
:1017F0004C000020080000202DE9F047044690F836
:10180000390099460D46012801D0222858D12DB320
:1018100022B394F83800012852D0012684F83860A9
:101820000027E76394F8390022281AD05FF01200ED
:1018300084F83900A284E2844FF48058E08C4B464F
:10184000401EE084A0684FF0000240454FF0800148
:10185000204613D100F097F908BB04E00120BDE851
:10186000F0873220E4E728882168C0F30800486048
:10187000206908B16D1C08E0AD1C06E000F083F99A
:1018800068B9216815F8010B4860E08C0028D5D1B3
:101890004B4600224021204600F075F908B1032094
:1018A000DDE794F83900322806D084F8396000BFAB
:1018B00084F838700020D2E7222084F83900F7E756
:1018C0000220CCE77047FEE7FEE770470907090EE4
:1018D000002806DA00F00F0000F1E02080F8141D67
:1018E000704700F1E02080F800147047704710B591
:1018F000FFF79EF8BDE81040FFF742BE10B590B06C
:1019000002200090012004901020002405900794EC
:101910006846FFF7FBFA0F20CDE90A040C940D94FA
:1019200000210AA80E94FFF723F9FFF765FA4FF498
:101930007A71B0FBF1F0FFF70FFE0420FFF7FFFD17
:1019400000221146501EFFF7E1F810B010BD000054
:101950000D48016841F00101016041680B4A1140E6
:10196000416001680A4A11400160016821F4802148
:101970000160416821F4FE0141604FF41F01816064
:101980000449C00308607047001002400000FFF8DF
:10199000FFFFF6FE08ED00E010B590F8391022299F
:1019A00003D0322901D0022010BD8168B1F5805FDB
:1019B00011D00169002901681FD0496801F07F0337
:1019C000816A4A1C82620B70C18D491E0904090C90
:1019D000C18518D030E00269816A002A0268526825
:1019E00005D0D2B20A80816A491C8162ECE7C2F359
:1019F00008020A80816A891CF7E74A68816A4B1CE1
:101A000083620A70E0E70168CA6822F02002CA60B7
:101A100090F83910322911D00168CA6822F4807216
:101A2000CA6001684A6922F001024A615FF001015F
:101A300080F83910FFF7B0FE002010BD1221F7E743
:101A40002DE9F041044600680169E26821F4405143
:101A5000114301612169A068084361690843216855
:101A6000CA6841F20C639A430243CA602068416924
:101A7000A26921F44071114341612849206864251D
:101A80004FF03208884218D1FFF7E6F900EBC001A9
:101A900001EB001061688900B0FBF1F0B0FBF5F6D6
:101AA000FFF7DAF900EBC00101EB00106168890073
:101AB000B0FBF1F7FFF7D0F917E0FFF7B7F900EB4C
:101AC000C00101EB001061688900B0FBF1F0B0FBD0
:101AD000F5F6FFF7ABF900EBC00101EB0010616810
:101AE0008900B0FBF1F7FFF7A1F900EBC00101EBB2
:101AF000001061688900B0FBF1F0B0FBF5F06FF009
:101B00001801484307EB800108EB0110B0FBF5F02A
:101B1000216866F31F108860BDE8F081003801403D
:101B200090F83910122903D0322901D002207047D1
:101B30008168B1F5805F016A0BD04A1C02620268BD
:101B400009785160C18C491E0904090CC1840ED06A
:101B500017E009880268C1F3080151600169002992
:101B6000016A02D0491C0162ECE7891CFBE70168AD
:101B7000CA6822F08002CA600068C16841F0400172
:101B8000C160002070472DE9F0471D4690460E4683
:101B90000446FEF747FF07465FEA08004FF00009DA
:101BA0004FF0010808D030E0681C05D095B1FEF771
:101BB00039FFC01BA8420DD82068006836EA000033
:101BC000F2D127E0681C20D025B1FEF72BFFC01B07
:101BD000A8421AD92068C16821F08001C16020683C
:101BE000C16821F02001C1602068C16821F48071C2
:101BF000C1602068416921F00101416184F83980A8
:101C000084F838900320BDE8F0872068006836EA41
:101C10000000D7D00020F6E70148FFF7B7BC00006E
:101C20000C000020FEE700000FB4054B10B503A91F
:101C3000044A029800F02CF810BC5DF814FB000078
:101C4000FD200008080000200FB4084B10B504A9BF
:101C500002AA039800F01CF8044602A9002000F034
:101C600048FA204610BC5DF814FB0000F320000881
:101C700002E008C8121F08C1002AFAD17047704755
:101C8000002001E001C1121F002AFBD170470000B3
:101C90002DE9FF4F8DB00F460546002606E02528AA
:101CA0000BD0DDE90F1290476D1C761C28780028B8
:101CB000F5D111B03046BDE8F08F0024A246A14610
:101CC0000122EC4900E0044315F8013F203B02FAF1
:101CD00003F00842F7D128782A2810D06FF02F029D
:101CE0002878A0F13001092914D80AEB8A0102EB07
:101CF000410144F0020400EB010A6D1CF0E701CF42
:101D00005FEA000A03D544F40054CAF1000A44F023
:101D100002046D1C28782E2817D115F8010F44F005
:101D200004042A280ED06FF02F022878A0F1300189
:101D300009290AD809EB890102EB410100EB0109ED
:101D40006D1CF2E757F8049B6D1C28786C280FD0A7
:101D500006DC4C2817D068280DD06A2814D104E07E
:101D6000742810D07A280FD10DE044F400140AE052
:101D700044F4801401E044F440146978814202D1B3
:101D800004F580146D1C6D1C2A786E2A1FD00CDCA3
:101D9000632A31D004DC002A8BD0582A11D1A3E069
:101DA000642A68D0692A0CD165E0732A2ED004DC3D
:101DB0006F2A73D0702A04D19BE0752A6FD0782ADD
:101DC0006ED01046DDE90F129047761C50E1C4F347
:101DD0000250022806D0032809D0042801CF09D0D8
:101DE000066045E101CFF117C0E9006140E101CF94
:101DF00006803DE106703BE117F8040B8DF800000A
:101E000000208DF80100EB46012003E057F804BBE9
:101E10004FF0FF3061074FF0000102D40DE008F1F0
:101E20000101884649450FDA8045F8DB1BF80810A8
:101E30000029F4D108E008F1010188468142FADB6B
:101E40001BF808100029F6D1DDE90F23AAEB0800E2
:101E50008146214600F036F9304400EB080604E0E4
:101E6000DDE90F121BF8010B9047B8F10108F7D21A
:101E700021464846F7E00A21C4F302534FF0000B15
:101E80000891022B04D001CFC117032B09D00AE01F
:101E9000FF1D27F00707F7E8020108E032E01FE026
:101EA00020E000B2C117042B01D140B2C117031EBC
:101EB00071F1000307DA4FF0000CD0EB0C006CEB73
:101EC00001012D2302E0230504D52B238DF82430B6
:101ED000012303E0E30701D02023F7E7984658E009
:101EE0000A2110E010210EE010204FF0000B0890A6
:101EF0000CE010214FF0000B44F004044FF00809EF
:101F0000089103E008214FF0000B0891C4F302533D
:101F1000022B04D001CF0021032B06D006E0FF1DC9
:101F200027F00707F7E8020103E080B2042B00D195
:101F3000C0B24FF0000823072BD5702A07D0DDF878
:101F400020C08CF0100C5CEA0B0C05D00EE0402396
:101F50008DF82430012308E050EA010306D0302335
:101F60008DF824308DF8252002239846DDF820C016
:101F70008CF0080C5CEA0B0C0BD150EA010301D188
:101F8000630706D530238DF824304FF00108A9F1FE
:101F90000109582A04D038A20B9208AA0A920BE031
:101FA0003AA2F9E75B46089AFEF70CFA0B9B9B5C9A
:101FB0000A9A521E0A92137050EA0102F2D10A984C
:101FC000ADEB000000F1200B600702D524F4803453
:101FD00001E04FF00109D94502DDA9EB0B0000E05B
:101FE000002000EB0B0141440890AAEB010AE0033A
:101FF00006D4DDE90F232146504600F063F806447D
:102000004FF0000908E009A911F80900DDE90F12F5
:10201000904709F10109761CC145F4DBE0030CD5BA
:10202000DDE90F232146504600F04CF8064404E059
:10203000DDE90F1230209047761C0899481E089061
:102040000029F5DC08E00A980A990078491C0A91F1
:10205000DDE90F129047761CBBF10001ABF1010BDB
:10206000F1DC21465046DDE90F2300F019F8064463
:102070006D1C1BE609280100303132333435363708
:1020800038396162636465660000000030313233C4
:102090003435363738394142434445460000000064
:1020A0002DE9F041044600251E461746880404D455
:1020B00005E039462020B0476D1C641EF9D528463E
:1020C000BDE8F0812DE9F041044600251E4690460A
:1020D000C80301D5302700E02027880404D505E097
:1020E00041463846B0476D1C641EF9D52846BDE808
:1020F000F0810A68531C0B601070704713B54FF6DF
:10210000FF73012269460248FFF776FB00981CBD69
:102110000C000020E8B0FEF793FCFFF7EFFB3D4812
:10212000816941F00401816180693B4900F004004C
:1021300000903A48002401604FF41651C0E90114A0
:102140000C21C460C0E904418461C461FFF78BFACB
:1021500033A0FFF769FD314901224831A1F10800A0
:10216000016041604038FFF7E1FA4FF48063314A83
:1021700031A14CA8FFF768FD4CA8FFF755FD1AAD3B
:1021800034A0FFF751FD64211AA800F0A9F8024617
:102190001AAB33A101A8FFF757FD01A935A0FFF73E
:1021A00043FD33AA35A11AA8FDF7DAFF34A133A8FD
:1021B000FDF7C8FF90B134A133A8FDF7C3FF002895
:1021C000DED101A80090659466AB65AA30A1669443
:1021D000681DFDF7C5FF022812D008E001AB6A4672
:1021E0002EA1681D0094FDF7BBFF012801D02DA092
:1021F00003E0009A2DA1136806E0FFF715FDBFE785
:10220000DDE965232DA1136001A8FFF71DFD01A8DD
:10221000F3E7000000100240003801400C000020ED
:1022200048656C6C6F2053544D3332202121210AB4
:102230000D000000540200204D656D6F7279204141
:102240006464723A202570204C656E3A2025640D36
:102250000A00000053544D3332203E20000000009D
:102260000D0A52656164696E3A202564202D25733C
:102270002D00000025730A0D0000000025730000EA
:102280005045454B00000000504F4B4500000000FA
:10229000257820257820257300000000257820254A
:1022A000730000004552524F520000005045454B0C
:1022B0003A2025782025780D0A000000504F4B4524
:1022C0003A2025782025780D0A00000003680A448A
:1022D0005B1C0360934200D301607047FFF70EBFA1
:1022E0002DE9F043104F002504464FF4007907F123
:1022F00008084E1E10E000BFD7E9002191420BD024
:10230000097821704A464146381DFFF7DFFF2078E3
:102310000D2803D0641C6D1CB542EDDB002020703D
:1023200068B2BDE8F08300004C000020000000000F
:10233000010203040102030406070809DDDDDDDDF7
:10234000DCBBBBDDDDDDDDDDDDDDDDDD9888888846
:1023500088888888777777777788888885555556ED
:102360006666666666666666666888888333333244
:1023700022222222222222222228888D9C23000827
:10238000000000200C000000701C0008A8230008BA
:102390000C0000204C160000801C000800A24A041B
:0823A000000000000000000035
:04000005080000ED02
:00000001FF
