:020000040800F2
:100000001804002001010008090100080B01000884
:100010000D0100080F010008110100080000000098
:1000200000000000000000000000000013010008B4
:10003000150100080000000017010008A50E0008C7
:100040001B0100081B0100081B0100081B01000820
:100050001B0100081B0100081B0100081B01000810
:100060001B0100081B0100081B0100081B01000800
:100070001B0100081B0100081B0100081B010008F0
:100080001B0100081B0100081B0100081B010008E0
:100090001B0100081B0100081B0100081B010008D0
:1000A0001B0100081B0100081B0100081B010008C0
:1000B0001B0100081B0100081B0100081B010008B0
:1000C0001B0100081B0100081B0100081B010008A0
:1000D0001B0100081B0100081B0100081B01000890
:1000E0001B0100081B0100081B010008DFF80CD0F1
:1000F00000F018F800480047610F000818040020BD
:100100000648804706480047FEE7FEE7FEE7FEE7B1
:10011000FEE7FEE7FEE7FEE7FEE7FEE7F90E000872
:10012000ED000008064C074D06E0E06840F00103D2
:1001300094E8070098471034AC42F6D3FFF7DAFF93
:10014000D40F0008F40F000831B500F0EDF80446B4
:1001500000F0EAF80099001B8842F9D338BD00008E
:100160002DE9F84FDFF890A100220AF1040B1446A4
:1001700001274FF00F090BF1040E00BF0B6807FABF
:1001800004F52B40AB4274D1DFF870C14E68A6EB8A
:100190000C0866452BD00DDC032E34D005DC36B3BD
:1001A000012E19D0022E2FD11BE0112E16D0122EA7
:1001B0002AD119E0B8F5881F19D006DCB8F5803FC0
:1001C00015D0B8F5801F1FD111E0B8F5001F0ED073
:1001D000B8F5041F18D10AE0CA6815E0CA68121DF4
:1001E00012E0CA6808320FE0CA680C320CE08A6874
:1001F0002AB1012A4FF0080203D0456104E004222D
:1002000002E0056100E00022FF2B01D8064601E074
:1002100000F104064FEA840501D9A5F12005D6F8BE
:1002200000C009FA05F82CEA080C02FA05F54CEAB8
:10023000050CC6F800C04D68ED0057D5304DAE69CD
:1002400046F00106AE61AD6924F0030605F0010534
:1002500000952C4D06EB050CDCF80850A6074FEA7C
:10026000167809FA08F6B543274EB04202D10026A7
:1002700010E03BE0254EB04201D101260AE0244EB9
:10028000B04201D1022605E0224EB04201D1032640
:1002900000E0042606FA08F62E43CCF808604D6804
:1002A000DAF80060ED03554601D51E4300E09E4399
:1002B0002E604D68DBF80060AD035D4601D51E433E
:1002C00000E09E432E604D68DEF80060ED0275464A
:1002D00001D51E4300E09E432E604D68AD020E4DD9
:1002E0002E6801D51E4300E09E432E60641C102C36
:1002F000FFF444AFBDE8F88F000401400000111086
:10030000001002400000014000080140000C0140C4
:1003100000100140001401400C0401400AB10161C9
:1003200070470904FBE700000148006870470000BF
:100330000000002002480168491C0160704700006D
:1003400000000020074810B5016841F0100101606D
:10035000032000F059F8002000F006F800F016F82D
:10036000002010BD0020024010B5044600F0A2F9A4
:100370004FF47A71B0FBF1F000F06CFD00222146E1
:10038000501E00F021F8002010BD00000C4808B5F8
:10039000816941F001018161806900F001000090F4
:1003A000032000F031F800221146501E00F00CF836
:1003B0000448416821F0E06141F08061416008BD7E
:1003C0000010024000000140F0B40E4B1B680C46C8
:1003D000C3F30223C3F10705042D00D90425191D19
:1003E000072901D2002300E0DB1E012606FA05F1F1
:1003F000491E214099409E40761E16403143F0BC74
:1004000000F040BD0CED00E0064900F0070208686E
:100410004FF6FF03184040EA0220034A10430860E9
:10042000704700000CED00E00000FA052DE9F047F0
:10043000DFF8789205460E46D9F80000022300F056
:100440000707012041044206994C41F28838B7421F
:1004500071D2D9F800C02CF0070C4CEA060CC9F890
:1004600000C0D9F8007007F00707B7426FD12E78A7
:10047000B60705D56668AF6826F0F0063E436660AD
:100480002E78F60756D06E68012E0BD0022E1ED0A5
:1004900093FAA3F1B1FA81F141F02001490924D086
:1004A000216823E091FAA1F2B2FA82F242F020022E
:1004B000520901D0226800E0626A91FAA1F1B1FA12
:1004C00081F101F01F018840024240D017E092FA0A
:1004D000A2F1B1FA81F141F02001490901D021686E
:1004E00000E0616A92FAA2F202E0616A93FAA3F272
:1004F000B2FA82F202F01F029040014227D06068F7
:1005000020F0030030436060FFF70EFF0646686886
:10051000012809D00228474613D01EE0FFF704FF48
:10052000801BB84201D992E047466068C0F3810061
:100530000128F3D1A1E015E0FFF7F6FE801BB842D9
:1005400073D86068C0F381000228F5D195E092E08D
:10055000FFF7EAFE801BB84279D8606810F00C0FF4
:10056000F6D18AE02F78BF0707D56768D5F808C0AD
:1005700027F0F00747EA0C0767602F78FF076DD078
:100580006F68012F0BD0022F1ED093FAA3F1B1FA9E
:1005900081F141F02001490924D0216823E091FA3A
:1005A000A1F2B2FA82F242F02002520901D022688E
:1005B00000E0626A91FAA1F1B1FA81F101F01F0144
:1005C0008840024257D017E092FAA2F1B1FA81F1C5
:1005D00041F02001490901D0216800E0616A92FAE6
:1005E000A2F202E0616A93FAA3F2B2FA82F202F096
:1005F0001F02904001423ED0606820F00300384363
:100600006060FFF791FE07466868012807D002285E
:1006100011D01FE0FFF788FEC11B414517D8606865
:10062000C0F381000128F5D118E010E0FFF77CFE4F
:10063000C11B41450BD86068C0F381000228F5D189
:100640000CE000BFFFF770FEC11B414502D903203B
:10065000BDE8F087606810F00C0FF3D1D9F80010F6
:1006600021F007013143C9F80010D9F8000000F06B
:100670000700B04201D00120EAE72878400705D5FD
:100680006068E96820F4E06008436060287800074B
:1006900006D56068296920F4605040EAC1006060B6
:1006A0000020FFF761FE0020D2E70000002002409A
:1006B0000010024010B500F017F808494968F02210
:1006C00092FAA2F201F0F001B2FA82F2D140044AA9
:1006D000515CC8400349086010BD00000010024092
:1006E000C40F00080400002010B519A385B00FCB7B
:1006F0008DE80F001AA01B4B006804905A681A4836
:1007000002F00C0104291DD008291BD14FF47014EC
:1007100094FAA4F402F47011B4FA84F4E140D20320
:100720001DF8011010D55A684FF4003393FAA3F363
:1007300002F40032B3FA83F3DA4004AB9A5CB0FB04
:10074000F2F0484305B010BD08484843FAE70000FE
:1007500002030405060708090A0B0C0D0E0F101002
:10076000010200000010024000127A0000093D0062
:100770002DE9F84F05460078DFF85C95C0074FF08B
:10078000010429D0D9F804004E46C0F38100670463
:10079000012807D07068C0F3810002281DD170685D
:1007A000C0031AD597FAA7F0B0FA80F040F0200005
:1007B000400901D0306800E0706A97FAA7F1B1FAF9
:1007C00081F101F01F0104FA01F1084204D06868C8
:1007D000012801D0052879D184E0306820F48030E8
:1007E0003060306820F480203060FFF79DFD824645
:1007F00041F2883806E000BFFFF796FDA0EB0A0142
:1008000041457DD897FAA7F0B0FA80F040F020007B
:10081000400901D0306800E0706A97FAA7F1B1FA98
:1008200081F101F01F0104FA01F10842E4D13068BE
:1008300020F480303060686801280BD0052811D082
:10084000306820F480203060686858B3FFF76CFD92
:10085000824611E0306820F480203060306840F437
:100860008030F0E70520B070EEE700BFFFF75CFDD9
:10087000A0EB0A014145C4D897FAA7F0B0FA80F07E
:1008800040F02000400901D0306800E0706A97FA1B
:10089000A7F1B1FA81F101F01F0104FA01F1084258
:1008A000E4D01FE0FFF740FD824605E0FFF73CFD86
:1008B000A0EB0A014145A4D897FAA7F0B0FA80F05E
:1008C00040F02000400902D0306801E0BAE0706AD0
:1008D00097FAA7F1B1FA81F101F01F0104FA01F1D1
:1008E0000842E3D12878FD4F80074FF0000A4FF00F
:1008F000020634D5D9F80410484611F00C0F00E078
:10090000B0E108D04168C846C1F38101022927D16E
:100910004168C90324D496FAA6F1B1FA81F141F0F5
:100920002001490901D0016800E0416A96FAA6F267
:10093000B2FA82F202F01F0204FA02F2114202D06D
:10094000296901297ED10168F82321F0F80293FA80
:10095000A3F36969B3FA83F399400A4302604FE055
:10096000286938B394FAA4F0B0FA80F047F8204030
:10097000FFF7DAFC834605E0FFF7D6FCA0EB0B009F
:10098000642898D896FAA6F0B0FA80F040F02000DB
:100990004009404601D0006800E0406A96FAA6F19E
:1009A000B1FA81F101F01F0104FA01F10842E3D02C
:1009B0004046C8E794FAA4F1B1FA81F147F821A0C2
:1009C000FFF7B2FC834605E0FFF7AEFCA0EB0B009F
:1009D0006428D6D896FAA6F0B0FA80F040F020004D
:1009E0004009404601D0006800E0406A96FAA6F14E
:1009F000B1FA81F101F01F0104FA01F10842E3D1DB
:100A00002878000773D5A869D8B394FAA4F0B0FA8F
:100A100080F007EB8000C0F88044FFF785FC80463B
:100A200006E000BFFFF780FCA0EB08006428A8D810
:100A300096FAA6F0B0FA80F040F06000B4EB501FD8
:100A400004D100E0D7E1D9F800000CE096FAA6F056
:100A5000B0FA80F040F06000B6EB501F484601D17C
:100A6000006A00E0406A96FAA6F1B1FA81F101F05D
:100A70001F0204FA02F10842D4D00120FFF764FB00
:100A800035E0FFE794FAA4F1B1FA81F107EB8101B7
:100A9000C1F880A4FFF748FC804605E0FFF744FC5E
:100AA000A0EB0800642894D896FAA6F0B0FA80F07B
:100AB00040F06000B4EB501F02D1D9F800000CE008
:100AC00096FAA6F0B0FA80F040F06000B6EB501F46
:100AD000484601D1006A00E0406A96FAA6F1B1FAF0
:100AE00081F101F01F0204FA02F10842D6D1287800
:100AF00040077DD5D9F81C1041F08051C9F81C1071
:100B0000D9F81C00DFF8D8B100F080500090DBF875
:100B1000001041F48071CBF80010FFF705FC80460F
:100B200006E000BFFFF700FCA0EB08006428BAD87D
:100B3000DBF80000C005F5D594FAA4F1B1FA81F113
:100B400007EB8101C1F800A44FF0040B9BFAABF155
:100B5000B1FA81F107EB8101C1F800A4FFF7E4FBD2
:100B6000009007E0FFF7E0FB0099411A41F288305E
:100B7000814277D896FAA6F0B0FA80F040F04000B3
:100B8000B4EB501F02D1D9F800000CE096FAA6F0A1
:100B9000B0FA80F040F04000B6EB501F484601D15B
:100BA000006A00E0406A96FAA6F1B1FA81F101F01C
:100BB0001F0104FA01F1A0460842D3D1E868E0B170
:100BC000012850462AD094FAA4F1B1FA81F107EB3A
:100BD0008101C1F800049BFAABF000BFB0FA80F0CD
:100BE00007EB8000C0F80044E868012821D000E04D
:100BF00083E0FFF799FB834656E094FAA4F1B1FA3B
:100C000081F107EB8101C1F800A49BFAABF1B1FAC5
:100C100081F107EB8101C1F800A4E5E79BFAABF194
:100C2000B1FA81F107EB8101C1F8000494FAA4F054
:100C3000D4E7FFF779FB834608E000BFFFF774FBBA
:100C4000A0EB0B0141F2883081420BD896FAA6F056
:100C5000B0FA80F040F04000B8EB501F03D1D9F853
:100C600000000DE09DE096FAA6F0B0FA80F040F0AA
:100C70004000B6EB501F484601D1006A00E0406AD0
:100C800096FAA6F1B1FA81F101F01F0208FA02F119
:100C90000842D3D031E000BFFFF746FBA0EB0B01C9
:100CA00041F2883081427CD896FAA6F0B0FA80F002
:100CB00040F04000B8EB501F02D1D9F8000012E01C
:100CC00096FAA6F0B0FA80F040F04000B6EB501F64
:100CD000484607D1006A06E0001002400000424288
:100CE00000700040406A96FAA6F1B1FA81F101F075
:100CF0001F0208FA02F10842CED1E869B0B3D9F870
:100D000004104E46C1F38101022974D002284FF02D
:100D100080714FF0007950460AD091FAA1F1B1FAF2
:100D200081F147F82100FFF7FFFA07464D466BE0D7
:100D30008A4691FAA1F1B1FA81F1BB4647F8210048
:100D4000FFF7F2FA80464F4606E000BFFFF7ECFAE5
:100D5000A0EB0800642854D897FAA7F0B0FA80F006
:100D600040F02000400902D0306801E061E0706A84
:100D700097FAA7F1B1FA81F101F01F0104FA01F12C
:100D80000842E3D1286AB0F5803F05D17068A968B0
:100D900020F4003008437060D5E908010843716809
:100DA00000E02EE021F47411084370609AFAAAF072
:100DB000B0FA80F04BF82040FFF7B6FA054604E0A1
:100DC000FFF7B2FA401B64281BD897FAA7F0B0FAD5
:100DD00080F040F02000400901D0306800E0706AE7
:100DE00097FAA7F1B1FA81F101F01F0104FA01F1BC
:100DF0000842E5D01DE01EE0FFF796FAC01B64280C
:100E000002D90320BDE8F88F95FAA5F0B0FA80F07A
:100E100040F02000400901D0306800E0706A95FA87
:100E2000A5F1B1FA81F101F01F0104FA01F10842C4
:100E3000E2D10020E6E70120E4E74FF0E0210428BA
:100E4000086903D020F004000861704740F00400F6
:100E5000FAE7704710B5401EB0F1807F01D3012042
:100E600010BD4FF0E02460610F21601700F00AF818
:100E70000020A06107202061002010BD10B5FFF701
:100E8000E8FF10BD0907090E002806DA00F00F0080
:100E900000F1E02080F8141D704700F1E02080F898
:100EA0000014704710B5FFF745FABDE81040FFF792
:100EB000E5BF30B58FB00220009001251020CDE9AC
:100EC0000450002407946846FFF752FCCDE90A5409
:100ED0000C940D9400210AA80E94FFF7A7FAFFF7CF
:100EE000E9FB4FF47A71B0FBF1F0FFF7B3FF042098
:100EF000FFF7A3FF0FB030BD0D48016841F00101BD
:100F0000016041680B4A1140416001680A4A114082
:100F10000160016821F480210160416821F4FE0133
:100F200041604FF41F0181600449C00308607047AD
:100F3000001002400000FFF8FFFFF6FE08ED00E0A1
:100F400002E008C8121F08C1002AFAD17047704792
:100F5000002001E001C1121F002AFBD170470000F0
:100F600086B0FFF7EFF9FFF7A4FF1448816941F05D
:100F70001001816180694FF4005400F0100004906A
:100F80000120CDE9004002200D4D0390694628461E
:100F9000FFF7E6F84FF47A76012221462846FFF75C
:100FA000BDF93046FFF7D0F8002221462846FFF76A
:100FB000B5F93046FFF7C8F8EEE700000010024030
:100FC00000100140000000000102030401020304BC
:100FD00006070809F40F00080000002018000000B0
:100FE000400F00080C10000818000020000400004A
:100FF000500F00080000000000A24A04000000009A
:0C100000000000000102030406070809BC
:04000005080000ED02
:00000001FF
