:020000040800F2
:10000000B01900202D020008350200083702000850
:10001000390200083B0200083D0200080000000011
:100020000000000000000000000000003F02000887
:100030004102000800000000CB010008791400080C
:10004000470200084702000847020008470200086C
:10005000470200084702000847020008470200085C
:10006000470200084702000847020008470200084C
:10007000470200084702000847020008470200083C
:10008000470200084702000847020008470200082C
:10009000470200084702000847020008470200081C
:1000A000470200084702000847020008470200080C
:1000B00047020008470200084702000847020008FC
:1000C00047020008470200084702000847020008EC
:1000D00047020008470200084702000847020008DC
:1000E00047020008470200084702000800F002F833
:1000F00000F03AF80AA090E8000C82448344AAF188
:100100000107DA4501D100F02FF8AFF2090EBAE885
:100110000F0013F0010F18BFFB1A43F0010318473B
:100120007418000094180000103A24BF78C878C1F1
:10013000FAD8520724BF30C830C144BF04680C60ED
:10014000704700000023002400250026103A28BF35
:1001500078C1FBD8520728BF30C148BF0B60704739
:100160001FB51FBD10B510BD00F083F81146FFF795
:10017000F7FF01F0A1FA00F0A1F803B4FFF7F2FFD6
:1001800003BC00F0A5F80000EFF3108072B67047D2
:1001900080F3108870471D484FF0FF010170002068
:1001A00080F309881A48012101701A484FF08051E4
:1001B000016062B6FEE717484FF08051016070475A
:1001C00014484FF080510160704772B6EFF3098018
:1001D00028B1203880E8F00F0F490968086000B5A1
:1001E0000E4880475DF804EB0D480E490A7802700E
:1001F00009480D490A680260106890E8F00F203045
:1002000080F309884EF0040E62B6704722ED00E0DC
:100210003600002004ED00E03C0000206D0B0008DB
:100220002F000020300000204400002009488047B3
:1002300009480047FEE7FEE7FEE7FEE7FEE7FEE7C8
:10024000FEE7FEE7FEE7FEE704480549054A064BE0
:1002500070470000A1140008ED000008B013002052
:10026000B0190020B0150020B0150020704770476D
:100270007047754600F028F8AE46050069465346BB
:1002800020F00700854618B020B5FFF7DDFFBDE878
:1002900020404FF000064FF000074FF000084FF0ED
:1002A000000B21F00701AC46ACE8C009ACE8C0097E
:1002B000ACE8C009ACE8C0098D4670470446AFF30E
:1002C00000802046FFF759FF004870474C1300207C
:1002D00001491820ABBEFEE726000200704700B5BA
:1002E00085B0684600F0EAFF019805B000BD000047
:1002F00008B54FF40040ADF8000004208DF803006D
:1003000003208DF802006946034800F063F80120DD
:1003100000F01AF808BD00000010014008B54FF4C5
:100320000040ADF8000010208DF8030003208DF888
:1003300002006946034800F04DF8012000F004F87F
:1003400008BD00000010014070B505460DB1012444
:1003500000E0002422464FF40041024800F0CEF8AD
:1003600070BD00000010014010B50446A0B200F0BE
:10037000FFFB10BD002100E0491C8142FCD3704707
:1003800008B500F075FF0121142000F061FF4FF463
:10039000C040ADF8000010208DF8030003208DF858
:1003A00002006946094800F015F84FF4C050ADF856
:1003B00000006946064800F00DF8FF20ADF8000087
:1003C0006946034800F006F808BD0000001001402F
:1003D000000801402DE9F0410246002500260020DA
:1003E00000230024002791F803C00CF00F0591F8BA
:1003F00003C00CF0100CBCF1000F03D091F802C048
:100400004CEA050591F800C0BCF1000F31D014682A
:1004100000202BE04FF0010C0CFA00F3B1F800C003
:100420000CEA03069E4220D183004FF00F0C0CFA19
:1004300003F7BC4305FA03FC4CEA040491F803C03B
:10044000BCF1280F06D14FF0010C0CFA00FCC2F8E9
:1004500014C00AE091F803C0BCF1480F05D14FF079
:10046000010C0CFA00FCC2F810C0401C0828D1D3C3
:100470001460B1F800C0BCF1FF0F34DD54680020F7
:100480002EE000F1080C4FF0010808FA0CF3B1F867
:1004900000C00CEA03069E4221D183004FF00F0CEE
:1004A0000CFA03F7BC4305FA03FC4CEA040491F888
:1004B00003C0BCF1280F05D100F1080C08FA0CF8B4
:1004C000C2F8148091F803C0BCF1480F07D100F1C5
:1004D000080C4FF0010808FA0CF8C2F81080401C14
:1004E0000828CED35460BDE8F0810246002093680E
:1004F0000B400BB1012000E0002070470AB1016100
:1005000000E041617047000000242CE0FFF73CFE52
:100510001549086001F0F0F8054613480068FFF738
:1005200037FE25B1012D0DD0022D15D10FE024B1DC
:1005300001F090F80D49086003E001F085F80B49DF
:10054000086009E042F20E700849086004E042F2D7
:100550000F700649086000BF00BFC4F1010441F2FA
:100560008830FFF701FFD1E70400002000000020E1
:1005700006E00448006801F073F80320FFF7F4FE7A
:10058000F7E70000000000201748184818481948ED
:1005900019481A481A481B481B481C481C481D4843
:1005A0001D481E481E481F481F4820482048214813
:1005B00021482248224823482348244824482548E3
:1005C00025482648264827482748284828482948B3
:1005D00029482A482A482B482B482C482C482D4883
:1005E0002D4800BF70470000341800083818000874
:1005F0003C1800083E18000840180008421800087F
:100600004418000846180008481800084A1800084E
:100610004C1800084E18000850180008521800081E
:100620005418000856180008581800085A180008EE
:100630005C1800085E1800086018000862180008BE
:100640006418000866180008681800086A1800088E
:100650006C1800086E18000870180008721800085E
:100660007418000876180008781800087A1800082E
:100670007C1800087E1800088018000882180008FE
:100680008418000886180008881800088A180008CE
:100690008C1800088E1800089018000810B500F09B
:1006A00013F800F07FFB00F0A7FB00F0C9FB00F09F
:1006B00051FB00F029FB00F0F7FB00F01DFC00F0FF
:1006C00004F8FFF761FF10BD7047704710B50024B4
:1006D0001A480078012830D1FFF756FD0446184823
:1006E0000078002804DD16480078401E1449087080
:1006F00013480078F0B913480078D8B900F068FCC6
:100700001148007811490978884213D010480E49E1
:10071000097850F821000F49086008460068806B8E
:10072000401C096888630C480068401C0A4908603E
:10073000FFF746FD2046FFF72BFD10BD36000020D9
:100740002D0000202E000020300000202F0000206F
:10075000E40A0020440000201400002010B50B48DB
:10076000007890B900F034FC094800780949087015
:1007700009480749097850F82100084908600846E7
:10078000006807490860FFF706FD10BD360000202D
:10079000300000202F000020E40A00204400002048
:1007A0003C000020704700002DE9FE4F06460F4632
:1007B00090461C464FF00009FFF7E6FC81462048B2
:1007C0000078002805DD4846FFF7E2FC3C20BDE844
:1007D000FE8F1C4850F8240060BB0120194941F8E5
:1007E00024004846FFF7D4FC0023424639463046F1
:1007F00000F01AF98246002000900190034602465C
:1008000051460290204600F011FC054635B90E48CD
:10081000007801280CD100F0A1FB09E0FFF7B4FC3F
:1008200081460020074941F824004846FFF7B0FC04
:100830002846CCE74846FFF7ABFC2820C7E7000076
:100840002D000020E40A0020360000202DE9F04FA2
:1008500085B081468A4693461C46DDE90F78129D95
:1008600000200390FFF790FC0390234800780028B5
:1008700006DD0398FFF78CFC3C2005B0BDE8F08F47
:100880001E4850F8240088BB01201C4941F8240070
:100890000398FFF77DFC2A464146384600F0CAFC23
:1008A0002B465A465146484600F0BEF8049011982F
:1008B000CDE9008002953A4620460E9B049900F04F
:1008C000B5FB064636B90E48007801280CD100F079
:1008D00045FB09E0FFF758FC03900020074941F869
:1008E00024000398FFF754FC3046C6E7FFE703985F
:1008F000FFF74EFC2820C0E72D000020E40A00206E
:1009000036000020704770472DE9F04706468846BC
:1009100014464FF000091D480078002803DD12201E
:100920002070BDE8F087FFF72FFC8146FF2E03D132
:100930001748006890F83260164850F826502DB9D4
:100940004846FFF725FC43202070EAE7012D05D13A
:100950004846FFF71DFC43202070E2E7404600F0C8
:100960005BFB07460F2F05DD4846FFF711FC4120D2
:100970002070D6E7414605F14C0000F03FFB4846A9
:10098000FFF706FC0020207000BFCAE72D00002002
:100990003C000020E40A0020704700002DE9F047E9
:1009A00007460D464FF0000A002028606860FFF7F8
:1009B000EBFB8246FF2F03D11948006890F8327094
:1009C000184850F827402CB95046FFF7E1FB432068
:1009D000BDE8F087012C04D15046FFF7D9FB432036
:1009E000F6E7207C00F0010020B95046FFF7D0FB6D
:1009F0004520EDE70026D4F80C90D4F80880504646
:100A0000FFF7C6FB00E0761C58F8041B0029FAD05B
:100A1000B0002860A9EB0600800068600020D7E7DE
:100A20003C000020E40A002070B5044610464FF058
:100A300080750560051F28462C606FF00106051FB4
:100A400028462E604FF01236051F28462E604FF0C4
:100A50000336051F28462E604FF00236051F284634
:100A60002E607610051F28462E60051F2846296037
:100A70004FF01136051F28462E604FF01036051F27
:100A800028462E604FF00936051F28462E604FF08D
:100A90000836051F28462E604FF00736051F2846EA
:100AA0002E604FF00636051F28462E604FF00536A3
:100AB000051F28462E604FF00436051F28462E607D
:100AC00070BD00002DE9F04105464FF00008FFF72A
:100AD0005BFB8046FF2D05D12048006890F832501E
:100AE000012608E01D48006890F83200A84201D1B4
:100AF000012600E000261A4850F825402CB940464F
:100B0000FFF746FB4820BDE8F081012C04D14046A8
:100B1000FFF73EFB4320F6E794F834701148C05DC0
:100B200094F8351088430F49C8550846C05D30B960
:100B300094F836100C48007888430B49087094F8F4
:100B4000300040F0080084F830004046FFF720FBFA
:100B5000012E01D100F002FA0020D4E73C00002071
:100B6000E40A00203200002031000020704700001D
:100B700070B50546002616480078002800DD70BDD7
:100B8000002D23DDFFF700FB06461248006890F8B1
:100B900034401148005D0F49096891F835108843C9
:100BA0000D4908550846005D40B90A48006890F8AC
:100BB00036100A48007888430849087005480068DC
:100BC000C5853046FFF7E4FA00F0C8F900BFD6E764
:100BD0002D0000203C0000203200002031000020C9
:100BE00070B5002600F072F8FFF7CEFA06463148DD
:100BF0000068401C2F4908603046FFF7C9FA2E48AC
:100C00000078012853D12D48007820B1012804D064
:100C1000022809D103E001250BE0002509E00125A8
:100C200001202649087004E00125002023490870AE
:100C300000BF00BF05B970BD2148046833E0FFF76D
:100C4000A3FA0646E08D50B3E08D401E80B2E085E9
:100C500028BB94F8300000F0370040B114F8300F92
:100C600020F03700207001206070303C02E000204E
:100C700084F8310094F8300000F0080078B934347A
:100C8000A0781049097808430E49087020780E4969
:100C9000085C6178084314F834190B4A50546469AD
:100CA0003046FFF775FA94F832001F28C7D100BF0D
:100CB000C1E7000050000020360000204C0000205A
:100CC000480000203100002032000020704710B59D
:100CD000FFF705FB0446204610BD10B5FFF7F7FFF0
:100CE0004FF47A71B0FBF1F4601E4FF0E0214861DF
:100CF0000846006940F0050008610846006940F0B8
:100D00000200086110BD000070B58C210F4800F092
:100D10001BF90E4C04F11C0600250AE0002020708F
:100D200066603F20A0720021E1721C341C36681CF2
:100D300085B2042DF2DB0020207060603F20A0729D
:100D40000021E17201480249086070BD5806002088
:100D50001C00002030B54FF4A071104800F0F4F8EA
:100D60000E4B03F1200500240AE0002018705D609E
:100D70003F20D8730021197420332035601C84B2C1
:100D8000092CF2DB0020187058603F20D873002136
:100D9000197402480249086030BD0000180500209F
:100DA0001800002000200A4908600A4908700A4912
:100DB00008700A4908700A4908700A4908600A4917
:100DC00008600A4908600A4908600A4908707047C3
:100DD000500000202D0000202E00002037000020B1
:100DE00036000020140000203800002028000020D9
:100DF000240000202C00002000220B4B1A700B490D
:100E0000002004E0002201F8012B421CD0B204288B
:100E1000F8DB0022064B1A70064B1A70064B1A605C
:100E2000064B1A607047000031000020320000209D
:100E30002F00002030000020440000203C00002053
:100E400030B54FF4FD61144800F07EF8802113485E
:100E500000F07AF8104B03F15C0500240AE05D61B4
:100E60003F2083F84C0000214D20C1545C335C3599
:100E7000601CC4B2152CF2D3002058613F2083F8C7
:100E80004C0000214D20C154002005490860024853
:100E90000449086030BD0000640B0020E40A002013
:100EA000480000204000002000B587B0032000214A
:100EB00080220A4BCDE90132CDE903104FF6FF70D5
:100EC0001F23074A00900748FFF7C0FC06AA06A1A7
:100ED0001F20FFF719FD07B000BD0000E408002047
:100EE000E00A00204D11000875432F4F532D49494A
:100EF0002049646C6500000000B587B00320002124
:100F000080220A4BCDE90132CDE903104FF6FE7085
:100F10001E23074A00900748FFF798FC06AA06A17F
:100F20001E20FFF7F1FC07B000BD0000E406002022
:100F3000E00800207111000875432F4F532D4949D7
:100F4000205374617400000004E0002200F8012BBB
:100F50004A1E91B20029F8DC7047000010B5002449
:100F6000FFF712F9044613480078F0B912480078E8
:100F7000D8B900F02DF81148007811490978884255
:100F800013D010480D49097850F821000E49086027
:100F900008460068806B401C096888630B4800683D
:100FA000401C0A490860FFF706F92046FFF7F0F8F1
:100FB00010BD00002D0000202E0000203000002079
:100FC0002F000020E40A002044000020140000202C
:100FD0000649074A1278885C0649095C034A515C55
:100FE00001EBC001044A117070470000921800081C
:100FF0003100002032000020300000200246002096
:1010000005E011F8013B02F8013B431CD8B20B7814
:10101000002BF6D1137070470146002002E0491CF6
:10102000421CD0B20A78002AF9D170472DE9F84F56
:1010300005460E4617469846DDE90BABDDF82890CD
:1010400000200090FFF7A0F800903A480468002CB8
:101050006BD0183454F8040C364908600098FFF738
:1010600097F844F8186CA576002020766076E08228
:1010700044F814AC44F80C9C44F8107C24F808BCE8
:1010800024F8068CE077E810207705F00700E0767A
:10109000217F01208840A077E17E01208840607791
:1010A00000206060A0602061E0602062A062606259
:1010B000E06220633F2084F83400183C00214D207A
:1010C00001552046FFF76EFB2046FFF71BFCFFF79C
:1010D0005BF80090184840F82540184800686061A7
:1010E0000020A0611548006810B1144800688461B0
:1010F000124804603434A078114909780843104933
:10110000087020780F49085C6178084314F8341996
:101110000C4A50540C480078401C0B490870009849
:10112000FFF736F80020BDE8F88F0098FFF730F899
:101130004220F8E740000020E40A00204800002098
:10114000310000203200002037000020002400BFC2
:10115000FFF71AF8044605480068401C0349086078
:101160002046FFF715F8FFF7CEFBF1E73800002027
:10117000002402E0C820FFF7FBFC1A480078002892
:10118000F8D0194800686421B0FBF1F016490860F6
:101190000846006828B9002014490870FF20FFF7AE
:1011A00091FC00BFFEF7F0FF0446114800681149AA
:1011B000086000200E4908602046FEF7E9FF0D4850
:1011C000006809490968B0FBF1F0C0F16400074903
:1011D0000870FFF7E1FB00F00FF86420FFF7C8FC90
:1011E000E0E700002C000020240000202000002068
:1011F00038000020280000207CB5002514E0694656
:101200002846FFF7CBFB064666B9094850F825404B
:1012100044B1012C06D0D4E9020100EB81006064E6
:101220000198A064681CC5B21F2DE8DD7CBD0000DC
:10123000E40A002002F0010343B102F002032BB1E3
:1012400002E0491E002308C00029FAD170470000BF
:1012500029B1064A92690243044B9A6104E0034AA9
:1012600092698243014B9A6170470000001002406E
:101270000F48006840F001000D49086008464068CA
:101280000C4908400A494860084600680A49084075
:10129000074908600846006820F480200860084676
:1012A000406820F4FE0048604FF41F0088607047DB
:1012B000001002400000FFF8FFFFF6FE30B50021ED
:1012C0000022002400232D4D6D6805F00C0121B192
:1012D000042905D0082923D105E0294D056022E025
:1012E000274D05601FE0254D6D6805F47012234DF4
:1012F0006D6805F48034022505EB92421CB9214D3E
:10130000554305600BE01D4D6D6805F400351DB1BA
:101310001C4D5543056002E0194D5543056002E040
:10132000174D056000BF00BF144D6D6805F0F0015A
:101330000909154D6B5C0568DD4045600F4D6D6812
:1013400005F4E061090A104D6B5C4568DD4085607D
:101350000A4D6D6805F46051C90A0B4D6B5C456818
:10136000DD40C560054D6D6805F44041890B074DB2
:101370006B5CC568B5FBF3F5056130BD001002403C
:1013800000127A0000093D00540000206400002093
:1013900010B500F001F810BD0CB5002001900090D0
:1013A0003348006840F480303149086000BF30485D
:1013B000006800F4003000900198401C01900098F3
:1013C00018B90198B0F5A06FF1D12948006800F470
:1013D000003010B10120009001E000200090009842
:1013E000012843D12348006840F0100021490860DB
:1013F0000846006820F0030008600846006840F0D6
:10140000020008601A484068194948600846406868
:1014100048600846406840F480604860084640687C
:1014200020F47C1048600846406840F4E8104860AA
:101430000846006840F08070086000BF0C480068F3
:1014400000F000700028F9D00948406820F003003F
:10145000074948600846406840F00200486000BF05
:101460000348406800F00C000828F9D10CBD0000CA
:10147000001002400020024010B5FEF785FE044631
:1014800006480078401C054908702046FEF780FE9B
:10149000FFF7A6FBFFF71AF910BD00002D00002092
:1014A00010B51348006840F0010011490860084673
:1014B0004068104908400E494860084600680E49D7
:1014C00008400B4908600846006820F48020086046
:1014D0000846406820F4FE0048604FF41F00886012
:1014E000FFF756FF4FF000600449086010BD000090
:1014F000001002400000FFF8FFFFF6FE08ED00E0DC
:1015000038B50546002409E0A54203D101200DF8B5
:10151000040002E000200DF80400641C042CF3DB3E
:101520009DF800204FF400610C48FEF7E7FF9DF89E
:1015300001204FF480510948FEF7E0FF9DF802209A
:101540004FF400510648FEF7D9FF9DF803204FF4F1
:1015500080410348FEF7D2FF38BD0000000801407B
:10156000001001402DE9FC41064688460A2E1AD299
:10157000DFE806F00507090B0D0F11131517EE2410
:1015800013E0242411E0BA240FE0B6240DE0742403
:101590000BE0D62409E0DE2407E0A42405E0FE24C5
:1015A00003E0F62401E0DA2400BF00BFB8F1000F29
:1015B00001D0012000E0002004434FF48077002593
:1015C0000BE07F1004EA070018B901200DF80500B0
:1015D00002E000200DF805006D1C082DF1DB9DF8E0
:1015E000002001211748FEF789FF9DF80120022104
:1015F0001448FEF783FF9DF8022004211148FEF7EE
:101600007DFF9DF8032008210E48FEF777FF9DF827
:10161000042010210B48FEF771FF9DF805202021C2
:101620000848FEF76BFF9DF8062040210548FEF7AD
:1016300065FF9DF8072080210248FEF75FFFBDE8A7
:10164000FC8100000008014001480068704700006C
:101650000C000020014800687047000010000020C6
:1016600070B504464FF47A7512490968481CC117D1
:1016700000EB91718910A0EB81010E4A11600026E8
:1016800003E00A2095FBF0F5761C0A4800688642C4
:10169000F7DB94FBF5F00A2190FBF1F201FB120459
:1016A00004480068FFF72CFF00212046FFF75AFF8F
:1016B00070BD00000800002010B5FEF761FEFEF7C7
:1016C000EDFFFFF70AFB0123074A00210748FFF758
:1016D0006BF80223064A00210648FFF765F8FFF77A
:1016E0003DF8002010BD0000F401002009050008AD
:1016F00084030020710500082DE9FC41072600271E
:1017000042F21074002503E000200DF805006D1C66
:10171000052DF9DBFEF702FE0020FEF715FE46F26E
:10172000A810FEF727FE0120FEF70EFE1920FEF797
:1017300021FE0020FEF708FEFEF7DAFD42F21074EB
:1017400006E02000A4F1010402D10220BDE8FC81E2
:101750004FF400413448FEF7C8FE0028F1D042F2B1
:10176000107405E02000A4F1010401D10220EDE78E
:101770004FF400412C48FEF7B8FE0128F2D00025B6
:1017800038E042F2107406E02000A4F1010402D116
:1017900040F22B20DAE74FF400412348FEF7A5FE84
:1017A0000028F1D042F2107409E02000A4F10104F5
:1017B00002D140F29A20C9E70120FEF7DBFD4FF489
:1017C00000411948FEF791FE0128EED042F20D705B
:1017D000844207D21DF807000121B1400843C0B27E
:1017E0000DF807001EB90726781CC7B201E0701E6D
:1017F000C6B26D1C282DC4DB9DF800000B490860A3
:101800009DF802000A4908609DF800009DF802104A
:10181000084400F0FF089DF80400404501D0012075
:1018200094E7002092E70000001001400C00002027
:101830001000002001000000785634120A00100049
:1018400001002000400101001C00140002000500FE
:1018500010001F0001000000050010000000000043
:101860000000040000000400000004000100040067
:1018700001000100010080000100160010000100BD
:1018800080000100010020005C00E80301001E014F
:101890006E0E0000010002000100030001000200C2
:1018A0000100040001000200010003000100020029
:1018B0000100050001000200010003000100020018
:1018C0000100040001000200010003000100020009
:1018D00001000600010002000100030001000200F7
:1018E00001000400010002000100030001000200E9
:1018F00001000500010002000100030001000200D8
:1019000001000400010002000100030001000200C8
:1019100001000700010002000100030001000200B5
:1019200001000400010002000100030001000200A8
:101930000100050001000200010003000100020097
:101940000100040001000200010003000100020088
:101950000100060001000200010003000100020076
:101960000100040001000200010003000100020068
:101970000100050001000200010003000100020057
:101980000100040001000200010003000100020048
:1019900001000000B41900080000002068000000E9
:1019A000280100081C1A00086800002048190000DF
:1019B000440100080000000000000000FFFFFFFFDE
:1019C0000000000000000000000000000000000017
:1019D0000000000000000000000000000000000007
:1019E00000000000000000000000000000000000F7
:1019F00000000000000000000000000000000000E7
:101A000000000000000000000000000001020304CC
:0C1A10000102030406070809020406088E
:04000005080000ED02
:00000001FF
